:100000000C9434000C943E000C943E000C943E0082
:100010000C943E000C943E000C943E000C943E0068
:100020000C943E000C943E000C943E000C943E0058
:100030000C943E000C943E000C943E000C943E0048
:100040000C943E000C943E000C943E000C943E0038
:100050000C943E000C943E000C943E000C943E0028
:100060000C943E000C943E0011241FBECFEFD8E04C
:10007000DEBFCDBF0E9440000C9439010C940000FB
:100080000E9463000E9469000E948F0087E690E052
:100090000E941F01489909C0499907C0289A80E029
:1000A0000E9470000E949B00F5CF489904C0499BB4
:1000B00002C0289A03C0489BEDCF2898109289006F
:1000C00010928800E7CF209A5098589A5198599AE0
:1000D000089580E480937C0087E880937A000895F7
:1000E00090917C00987F90937C0090917C00877029
:1000F000892B80937C0080917A00806480937A00C1
:1001000080917A0084FFFCCF80917A008061809397
:100110007A002091780030917900C9010895E0E8D3
:10012000F0E0808183688083E1E8F0E080818B608B
:100130008083219A08959C01893C9105E0F486E929
:1001400090E0909389008093880082E30E943101BF
:1001500080E30E94310183E40E9431018AE00E9421
:10016000310180ED97E020E931E0F9013197F1F7B5
:100170000197D9F70895895C90408C529140E0F442
:1001800084EF91E0909389008093880082E30E943D
:10019000310185E30E94310183E40E9431018AE04C
:1001A0000E94310180ED97E020E931E0F9013197BB
:1001B000F1F70197D9F70895C901855F9140883C0F
:1001C0009105E0F488EA92E090938900809388009A
:1001D00082E30E94310189E30E94310183E40E949D
:1001E00031018AE00E94310180ED97E020E931E0A1
:1001F000F9013197F1F70197D9F708952D5B324056
:1002000023543140D8F484E893E09093890080939C
:10021000880083E30E94310183E30E94310183E47B
:100220000E9431018AE00E94310180ED97E020E9CF
:1002300031E0F9013197F1F70197D9F708958093EB
:10024000C4009093C50086E48093C20088ED80933B
:10025000C10008958091C00087FFFCCF8091C60047
:100260000895982F8091C00085FFFCCF9093C60021
:060270000895F894FFCF91
:00000001FF
